:10000000009003200D0200008902000053DA060070
:100010008D0200008F02000091020000000000002D
:1000200000000000000000000000000011040000BB
:10003000950200000000000041040000511204007D
:10004000B1D50600B9D50600C1D50600C9D5060050
:10005000D1D50600D9D50600E1D50600E9D50600C0
:10006000F1D50600F9D5060001D6060009D606002E
:1000700011D6060019D6060021D6060029D606009C
:1000800031D6060039D6060041D6060049D606000C
:1000900051D6060059D6060061D6060069D606007C
:1000A00071D6060079D6060081D6060089D60600EC
:1000B00091D6060099D60600A1D60600A9D606005C
:1000C000B1D60600B9D60600C1D60600C9D60600CC
:1000D000D1D60600D9D60600E1D60600E9D606003C
:1000E000F1D60600F9D606008D6E000001D7060095
:1000F00009D7060011D7060019D7060021D7060038
:1001000029D7060031D7060039D7060041D70600A7
:1001100049D7060051D7060059D7060061D7060017
:1001200069D7060071D7060079D7060081D7060087
:1001300089D7060091D7060099D70600A1D70600F7
:10014000A9D70600B1D70600B9D70600C1D7060067
:10015000C9D70600D1D70600D9D70600E1D70600D7
:10016000E9D70600F1D70600F9D7060001D8060046
:1001700009D8060011D8060019D8060021D80600B3
:1001800029D8060031D80600C50004004D0004003F
:10019000750004009D00040039D8060041D806000F
:1001A00049D8060051D8060059D8060061D8060083
:1001B00069D8060071D8060079D8060081D80600F3
:1001C00089D8060091D8060099D80600A1D8060063
:1001D000F018090000000020C0030000F01809001A
:1001E0000000FF1F00000000F018090000000014CC
:1001F00000000000C0030020482801000000FF1F8D
:1002000048000000000000140000000010B572B6A5
:1002100040F0B8FB0D4B07E003F10C049A685968F5
:10022000186800F019F82346094A9342F4D306E00F
:100230001C46596854F8080B00F01DF82346054A7F
:100240009342F5D362B683F03BFBFEE7D00100009A
:10025000F40100000C020000002393420AD210B403
:1002600050F8044B41F8044B04339342F8D35DF843
:10027000044B7047704700238B4204D2002240F8A1
:10028000042B0433F8E77047FEE7FEE7FEE7FEE7DE
:10029000FEE7FEE7FEE7FEE7FEE7FEE7FFFFFFFF04
:1002A000FFFFFFFFFFFFFFFFFFFFFFFFFFFFFFFF5E
:1002B000FFFFFFFFFFFFFFFFFFFFFFFFFFFFFFFF4E
:1002C000FFFFFFFFFFFFFFFFFFFFFFFFFFFFFFFF3E
:1002D000FFFFFFFFFFFFFFFFFFFFFFFFFFFFFFFF2E
:1002E000FFFFFFFFFFFFFFFFFFFFFFFFFFFFFFFF1E
:1002F000FFFFFFFFFFFFFFFFFFFFFFFFFFFFFFFF0E
:10030000FFFFFFFFFFFFFFFFFFFFFFFFFFFFFFFFFD
:10031000FFFFFFFFFFFFFFFFFFFFFFFFFFFFFFFFED
:10032000FFFFFFFFFFFFFFFFFFFFFFFFFFFFFFFFDD
:10033000FFFFFFFFFFFFFFFFFFFFFFFFFFFFFFFFCD
:10034000FFFFFFFFFFFFFFFFFFFFFFFFFFFFFFFFBD
:10035000FFFFFFFFFFFFFFFFFFFFFFFFFFFFFFFFAD
:10036000FFFFFFFFFFFFFFFFFFFFFFFFFFFFFFFF9D
:10037000FFFFFFFFFFFFFFFFFFFFFFFFFFFFFFFF8D
:10038000FFFFFFFFFFFFFFFFFFFFFFFFFFFFFFFF7D
:10039000FFFFFFFFFFFFFFFFFFFFFFFFFFFFFFFF6D
:1003A000FFFFFFFFFFFFFFFFFFFFFFFFFFFFFFFF5D
:1003B000FFFFFFFFFFFFFFFFFFFFFFFFFFFFFFFF4D
:1003C000FFFFFFFFFFFFFFFFFFFFFFFFFFFFFFFF3D
:1003D000FFFFFFFFFFFFFFFFFFFFFFFFFFFFFFFF2D
:1003E000FFFFFFFFFFFFFFFFFFFFFFFFFFFFFFFF1D
:1003F000FFFFFFFFFFFFFFFFFFFFFFFFFFFFFFFF0D
:10040000FFFFFFFFFFFFFFFFFFFFFFFFFEFFFFFFFD
:10041000074B19680868B0E8F04F80F30988BFF30C
:100420006F8F4FF0000080F311887047AFF30080AA
:10043000C428012000BF00BFFFFFFFFFFFFFFFFF39
:10044000EFF30980BFF36F8F154B1A681EF0100F82
:1004500008BF20ED108A20E9F04F10602DE9090057
:100460004FF0200080F31188BFF34F8FBFF36F8FE1
:1004700041F00EFE4FF0000080F3118809BC1968AE
:100480000868B0E8F04F1EF0100F08BFB0EC108AFB
:1004900080F30988BFF36F8F704700BFAFF3008010
:1004A000C428012000BF00BFFFFFFFFFFFFFFFFFC9
:1004B0002DE9F05F40F20008C2F20008F0C824BA4B
:1004C0002DBA36BA3FBAF0C298E8001C802900F075
:1004D000D781C02900F0FF8090E80A0309BA1BBA4F
:1004E00098FA88F899FA89F9A2E80A035AF8040BED
:1004F0004FEA396ECCF844E8CCF800B0DCF884E878
:100500008EEA000E84EA0E0485EA040586EA0506F2
:1005100087EA0607F0C2CCF84478CCF800B0DCF8E3
:1005200084E881EA0E0183EA010388EA030889EA84
:100530000809A2E80A035AF8040B4FEA396ECCF80E
:1005400044E8CCF800B0DCF884E88EEA000E84EAD7
:100550000E0485EA040586EA050687EA0607F0C266
:10056000CCF84478CCF800B0DCF884E881EA0E01DD
:1005700083EA010388EA030889EA0809A2E80A0372
:100580005AF8040B4FEA396ECCF844E8CCF800B0C6
:10059000DCF884E88EEA000E84EA0E0485EA04059D
:1005A00086EA050687EA0607F0C2CCF84478CCF85C
:1005B00000B0DCF884E881EA0E0183EA010388EAEE
:1005C000030889EA0809A2E80A035AF8040B4FEA6B
:1005D000396ECCF844E8CCF800B0DCF884E88EEA58
:1005E000000E84EA0E0485EA040586EA050687EA19
:1005F0000607F0C2CCF84478CCF800B0DCF884E808
:1006000081EA0E0183EA010388EA030889EA0809FE
:10061000A2E80A035AF8040B4FEA396ECCF844E812
:10062000CCF800B0DCF884E88EEA000E84EA0E0410
:1006300085EA040586EA050687EA0607F0C2CCF8D3
:100640004478CCF800B0DCF884E881EA0E0183EA53
:10065000010388EA030889EA0809A2E80A035AF8AC
:10066000040B4FEA396ECCF844E8CCF800B0DCF863
:1006700084E88EEA000E84EA0E0485EA040586EA20
:10068000050687EA0607F0C2CCF84478CCF800B03B
:10069000DCF884E881EA0E0183EA010388EA0308B2
:1006A00089EA0809A2E80A035AF8040B4FEA396EEE
:1006B000CCF844E8CCF800B0DCF884E88EEA000E10
:1006C00084EA0E0485EA040586EA050687EA060739
:1006D000F0C2BDE8F09F90E8000398FA88F899FA14
:1006E00089F9A2E800035AF8040B4FEA3963CCF801
:1006F0004438CCF800B0DCF8843883EA000384EA9C
:10070000030485EA040586EA050687EA060788EAFF
:10071000070889EA0809A2E8F0035AF8040B4FEA2F
:100720003963CCF84438CCF800B0DCF8843883EA7C
:10073000000384EA030485EA040586EA050687EADD
:10074000060788EA070889EA0809A2E8F0035AF8C8
:10075000040B4FEA3963CCF84438CCF800B0DCF82D
:10076000843883EA000384EA030485EA040586EA00
:10077000050687EA060788EA070889EA0809A2E861
:10078000F0035AF8040B4FEA3963CCF84438CCF83C
:1007900000B0DCF8843883EA000384EA030485EAC5
:1007A000040586EA050687EA060788EA070889EA53
:1007B0000809A2E8F0035AF8040B4FEA3963CCF8B1
:1007C0004438CCF800B0DCF8843883EA000384EACB
:1007D000030485EA040586EA050687EA060788EA2F
:1007E000070889EA0809A2E8F0035AF8040B4FEA5F
:1007F0003963CCF84438CCF800B0DCF8843883EAAC
:10080000000384EA030485EA040586EA050687EA0C
:10081000060788EA070889EA0809A2E8F0035AF8F7
:10082000040B4FEA3963CCF84438CCF800B0DCF85C
:10083000843883EA000384EA030485EA040586EA2F
:10084000050687EA060788EA070889EA0809A2E890
:10085000F0035AF8040B4FEA3963CCF84438CCF86B
:1008600000B0DCF8843883EA000384EA030485EAF4
:10087000040586EA050687EA0607F0C2BDE8F09F90
:10088000DAF800004FEA3763CCF84438CCF800B00F
:10089000DCF8843883EA000384EA030485EA04056B
:1008A00086EA050687EA0607F0C2DAF804004FEA8E
:1008B0003763CCF84438CCF800B0DCF8843883EAED
:1008C000000384EA030485EA040586EA050687EA4C
:1008D0000607F0C2DAF808004FEA3763CCF844386C
:1008E000CCF800B0DCF8843883EA000384EA03041F
:1008F00085EA040586EA050687EA0607F0C2DAF803
:100900000C004FEA3763CCF84438CCF800B0DCF880
:10091000843883EA000384EA030485EA040586EA4E
:10092000050687EA0607F0C2DAF810004FEA3763D7
:10093000CCF84438CCF800B0DCF8843883EA000303
:1009400084EA030485EA040586EA050687EA0607C1
:10095000F0C2DAF814004FEA3763CCF84438CCF828
:1009600000B0DCF8843883EA000384EA030485EAF3
:10097000040586EA050687EA0607F0C2DAF81800D9
:100980004FEA3763CCF84438CCF800B0DCF8843850
:1009900083EA000384EA030485EA040586EA05067F
:1009A00087EA0607F0C2DAF81C004FEA3763CCF892
:1009B0004438CCF800B0DCF8843883EA000384EAD9
:1009C000030485EA040586EA050687EA0607F0C2FD
:1009D000DAF820004FEA3763CCF84438CCF800B09E
:1009E000DCF8843883EA000384EA030485EA04051A
:1009F00086EA050687EA0607F0C2DAF824004FEA1D
:100A00003763CCF84438CCF800B0DCF8843883EA9B
:100A1000000384EA030485EA040586EA050687EAFA
:100A20000607F0C2BDE8F09FAFF30080AFF300808F
:100A30002DE9F01F90E8F00024BA2DBA36BA3FBA7B
:100A400040F21000C2F20000B1E8000F84EA08048E
:100A500085EA090586EA0A0687EA0B0790E8011F7E
:100A60008BE8F000CCF80000CCF80080F0C989E8F1
:100A7000F000CCF80000CCF80080F0C989E8F00064
:100A8000CCF80000CCF80080F0C989E8F000CCF880
:100A90000000CCF80080F0C989E8F000CCF8000034
:100AA000CCF80080F0C989E8F000CCF80000CCF860
:100AB0000080F0C989E8F000CCF80000CCF8008094
:100AC000F0C989E8F000CCF80000CCF80080F0C94B
:100AD00089E8F000CCF80000CCF80080F0C989E883
:100AE000F0000A2A1DD0CCF80000CCF80080F0C934
:100AF00089E8F000CCF80000CCF80080F0C989E863
:100B0000F0000C2A0DD0CCF80000CCF80080F0C921
:100B100089E8F000CCF80000CCF80080F0C989E842
:100B2000F000CCF80000CCF800809AE8F00091E8E2
:100B3000000F84EA080485EA090586EA0A0687EABE
:100B40000B0724BA2DBA36BA3FBA83E8F000BDE8E5
:100B5000F01F7047AFF30080AFF30080AFF3008069
:100B60002DE9F01F90E8F00024BA2DBA36BA3FBA4A
:100B700040F23000C2F2000001EB021191E8000FD8
:100B800084EA080485EA090586EA0A0687EA0B076B
:100B900090E8011F8BE8F00031E9F000CCF800008C
:100BA000CCF8008089E8F00031E9F000CCF80000D2
:100BB000CCF8008089E8F00031E9F000CCF80000C2
:100BC000CCF8008089E8F00031E9F000CCF80000B2
:100BD000CCF8008089E8F00031E9F000CCF80000A2
:100BE000CCF8008089E8F00031E9F000CCF8000092
:100BF000CCF8008089E8F00031E9F000CCF8000082
:100C0000CCF8008089E8F00031E9F000CCF8000071
:100C1000CCF8008089E8F00031E9F000CCF8000061
:100C2000CCF8008089E8F0000A2A21D031E9F000F0
:100C3000CCF80000CCF8008089E8F00031E9F00041
:100C4000CCF80000CCF8008089E8F0000C2A0FD026
:100C500031E9F000CCF80000CCF8008089E8F00021
:100C600031E9F000CCF80000CCF8008089E8F00011
:100C7000CCF80000CCF800809AE8F00031E9000FD1
:100C800084EA080485EA090586EA0A0687EA0B076A
:100C900024BA2DBA36BA3FBA83E8F000BDE8F01F97
:100CA000704700BFAFF30080AFF30080AFF3008068
:100CB00041F6480390E80600CEF2080383E80600F8
:100CC00041F2000140F20002CEF20801CCF2804273
:100CD0000A60986B10F0020018BF4FF0FF307047A9
:100CE0002DE9F00041F64807CEF2080791E8180018
:100CF0001BBA24BA90E860002DBA36BA87E87800AB
:100D000040F28000C2F20000FBC880E8780080E872
:100D1000C00003C900BA09BA82E80300F0BC7047FA
:100D20002DE9F00041F64807CEF2080791E81800D7
:100D30001BBA24BA90E860002DBA36BA87E878006A
:100D400040F2A000C2F20000FBC880E8780080E812
:100D5000C00003C900BA09BA82E80300F0BC7047BA
:100D60004DF8044D40F2C001C2F200011EC980E8F6
:100D70001E0010BC704700BFAFF30080AFF30080CF
:100D80002DE9F0038946904698E81E0040F2D0070E
:100D9000C2F2000724EA020503EA020635432944A9
:100DA000066831443E68314402EB716123EA010573
:100DB00002EA010635432C44466834447E683444D4
:100DC00001EB345422EA040501EA040635432B44BE
:100DD00086683344BE68334404EBF33321EA0305E9
:100DE00004EA030635432A44C6683244FE683244A6
:100DF00003EBB22224EA020503EA02063543294442
:100E0000066931443E69314402EB716123EA010510
:100E100002EA010635432C44466934447E69344471
:100E200001EB345422EA040501EA040635432B445D
:100E300086693344BE69334404EBF33321EA030586
:100E400004EA030635432A44C6693244FE69324443
:100E500003EBB22224EA020503EA020635432944E1
:100E6000066A31443E6A314402EB716123EA0105AE
:100E700002EA010635432C44466A34447E6A34440F
:100E800001EB345422EA040501EA040635432B44FD
:100E9000866A3344BE6A334404EBF33321EA030524
:100EA00004EA030635432A44C66A3244FE6A3244E1
:100EB00003EBB22224EA020503EA02063543294481
:100EC000066B31443E6B314402EB716123EA01054C
:100ED00002EA010635432C44466B34447E6B3444AD
:100EE00001EB345422EA040501EA040635432B449D
:100EF000866B3344BE6B334404EBF33321EA0305C2
:100F000004EA030635432A44C66B3244FE6B32447E
:100F100003EBB22223EA040502EA0406354329441E
:100F2000466831443E6C314402EBF16122EA03052C
:100F300001EA030635432C44866934447E6C34440C
:100F400001EBF45421EA020504EA020635432B447E
:100F5000C66A3344BE6C334404EBB34324EA010550
:100F600003EA010635432A4406683244FE6C3244E3
:100F700003EB323223EA040502EA0406354329442E
:100F8000466931443E6D314402EBF16122EA0305CA
:100F900001EA030635432C44866A34447E6D3444AA
:100FA00001EBF45421EA020504EA020635432B441E
:100FB000C66B3344BE6D334404EBB34324EA0105EE
:100FC00003EA010635432A4406693244FE6D324481
:100FD00003EB323223EA040502EA040635432944CE
:100FE000466A31443E6E314402EBF16122EA030568
:100FF00001EA030635432C44866B34447E6E344448
:1010000001EBF45421EA020504EA020635432B44BD
:10101000C6683344BE6E334404EBB34324EA01058F
:1010200003EA010635432A44066A3244FE6E32441E
:1010300003EB323223EA040502EA0406354329446D
:10104000466B31443E6F314402EBF16122EA030505
:1010500001EA030635432C44866834447E6F3444E9
:1010600001EBF45421EA020504EA020635432B445D
:10107000C6693344BE6F334404EBB34324EA01052D
:1010800003EA010635432A44066B3244FE6F3244BC
:1010900003EB323282EA0305654029444669314454
:1010A000D7F88060314402EB317181EA02055D407E
:1010B0002C44066A3444D7F88460344401EB7454F9
:1010C00084EA010555402B44C66A3344D7F888604A
:1010D000334404EB334383EA04054D402A44866BD2
:1010E0003244D7F88C60324403EB722282EA030563
:1010F0006540294446683144D7F89060314402EB9A
:10110000317181EA02055D402C4406693444D7F808
:101110009460344401EB745484EA010555402B4437
:10112000C6693344D7F89860334404EB334383EA09
:1011300004054D402A44866A3244D7F89C60324404
:1011400003EB722282EA030565402944466B314471
:10115000D7F8A060314402EB317181EA02055D40AD
:101160002C4406683444D7F8A460344401EB74542A
:1011700084EA010555402B44C6683344D7F8A8607B
:10118000334404EB334383EA04054D402A44866923
:101190003244D7F8AC60324403EB722282EA030592
:1011A00065402944466A3144D7F8B060314402EBC7
:1011B000317181EA02055D402C44066B3444D7F856
:1011C000B460344401EB745484EA010555402B4467
:1011D000C66B3344D7F8B860334404EB334383EA37
:1011E00004054D402A4486683244D7F8BC60324436
:1011F00003EB722262EA04055D402944066831442B
:10120000D7F8C060314402EBB16161EA0305554093
:101210002C44C6693444D7F8C460344401EBB45458
:1012200064EA02054D402B44866B3344D7F8C8600E
:10123000334404EB734363EA010565402A4446697D
:101240003244D7F8CC60324403EBF22262EA040560
:101250005D402944066B3144D7F8D060314402EB3D
:10126000B16161EA030555402C44C6683444D7F89F
:10127000D460344401EBB45464EA02054D402B447D
:10128000866A3344D7F8D860334404EB734363EA87
:10129000010565402A4446683244D7F8DC60324490
:1012A00003EBF22262EA04055D402944066A3144F8
:1012B000D7F8E060314402EBB16161EA03055540C3
:1012C0002C44C66B3444D7F8E460344401EBB45486
:1012D00064EA02054D402B4486693344D7F8E86040
:1012E000334404EB734363EA010565402A44466BCB
:1012F0003244D7F8EC60324403EBF22262EA040590
:101300005D40294406693144D7F8F060314402EB6E
:10131000B16161EA030555402C44C66A3444D7F8EC
:10132000F460344401EBB45464EA02054D402B44AC
:1013300086683344D7F8F860334404EB734363EAB8
:10134000010565402A44466A3244D7F8FC603244BD
:1013500003EBF222D8F800502944D8F804502A446C
:10136000D8F808502B44D8F80C502C4488E81E00BC
:1013700000F14000B9F101097FF40CADBDE8F003C4
:10138000704700BFAFF30080AFF30080AFF3008081
:10139000F0B540F2C004C2F20004F0CC82E8F000E4
:1013A000FFF7EEFCF0BD00BFAFF30080AFF30080AD
:1013B0000A464FF00101E3E4AFF30080AFF3008091
:1013C0002DE9300040F2D011C2F200013EC980E8A0
:1013D0003E0030BC704700BFAFF30080AFF3008029
:1013E0002DE9F00FE0B041F2000BCEF2080B0BF646
:1013F00048080DF11C0992E8F80088E8F80000BFE1
:1014000089E8F8004FEAF365CBF8445840F200054C
:101410004BF2000640F2F01ACCF60045CCF612165C
:10142000C2F2000A5AF8047B50F8043B1CBACBF80D
:10143000006010943C44CBF8C448CBF8005050F8FE
:10144000043B1CBACBF8006011943C44CBF8C44870
:10145000CBF8005050F8043B1CBACBF80060129453
:101460003C44CBF8C448CBF8005050F8043B1CBABD
:10147000CBF8006013943C44CBF8C448CBF8005040
:1014800050F8043B1CBACBF8006014943C44CBF8F1
:10149000C448CBF8005050F8043B1CBACBF80060AD
:1014A00015943C44CBF8C448CBF8005050F8043BAA
:1014B0001CBACBF8006016943C44CBF8C448CBF877
:1014C000005050F8043B1CBACBF8006017943C4421
:1014D000CBF8C448CBF8005050F8043B1CBACBF80A
:1014E000006018943C44CBF8C448CBF8005050F846
:1014F000043B1CBACBF8006019943C44CBF8C448B8
:10150000CBF8005050F8043B1CBACBF800601A949A
:101510003C44CBF8C448CBF8005050F8043B1CBA0C
:10152000CBF800601B943C44CBF8C448CBF8005087
:1015300050F8043B1CBACBF800601C943C44CBF838
:10154000C448CBF8005050F8043B1CBACBF80060FC
:101550001D943C44CBF8C448CBF8005050F8043BF1
:101560001CBACBF800601E943C44CBF8C448CBF8BE
:10157000005050F8043B1CBACBF800601F943C4468
:10158000CBF8C448CBF80050CBF80060109C129BFD
:1015900084EA0304189B84EA03041D9B84EA030481
:1015A0004FEAF47320933B44CBF8C438CBF8005097
:1015B000CBF80060119C139B84EA0304199B84EA16
:1015C00003041E9B84EA03044FEAF47321933B4413
:1015D000CBF8C438CBF80050CBF80060129C149BB9
:1015E00084EA03041A9B84EA03041F9B84EA03042D
:1015F0004FEAF47322933B44CBF8C438CBF8005045
:10160000CBF80060139C159B84EA03041B9B84EABF
:101610000304209B84EA03044FEAF47323933B44BE
:10162000CBF8C438CBF800504BF20008CCF6920847
:101630005AF8047BCBF80080149C169B84EA0304C0
:101640001C9B84EA0304219B84EA03044FEAF4739D
:1016500024933B44CBF8C438CBF80050CBF800803F
:10166000159C179B84EA03041D9B84EA0304229BB8
:1016700084EA03044FEAF47325933B44CBF8C4385F
:10168000CBF80050CBF80080169C189B84EA03042A
:101690001E9B84EA0304239B84EA03044FEAF47349
:1016A00026933B44CBF8C438CBF80050CBF80080ED
:1016B000179C199B84EA03041F9B84EA0304249B60
:1016C00084EA03044FEAF47327933B44CBF8C4380D
:1016D000CBF80050CBF80080189C1A9B84EA0304D6
:1016E000209B84EA0304259B84EA03044FEAF473F5
:1016F00028933B44CBF8C438CBF80050CBF800809B
:10170000199C1B9B84EA0304219B84EA0304269B07
:1017100084EA03044FEAF47329933B44CBF8C438BA
:10172000CBF80050CBF800801A9C1C9B84EA030481
:10173000229B84EA0304279B84EA03044FEAF473A0
:101740002A933B44CBF8C438CBF80050CBF8008048
:101750001B9C1D9B84EA0304239B84EA0304289BAF
:1017600084EA03044FEAF4732B933B44CBF8C43868
:10177000CBF80050CBF800801C9C1E9B84EA03042D
:10178000249B84EA0304299B84EA03044FEAF4734C
:101790002C933B44CBF8C438CBF80050CBF80080F6
:1017A0001D9C1F9B84EA0304259B84EA03042A9B57
:1017B00084EA03044FEAF4732D933B44CBF8C43816
:1017C000CBF80050CBF800801E9C209B84EA0304D9
:1017D000269B84EA03042B9B84EA03044FEAF473F8
:1017E0002E933B44CBF8C438CBF80050CBF80080A4
:1017F0001F9C219B84EA0304279B84EA03042C9BFF
:1018000084EA03044FEAF4732F933B44CBF8C438C3
:10181000CBF80050CBF80080209C229B84EA030484
:10182000289B84EA03042D9B84EA03044FEAF473A3
:1018300030933B44CBF8C438CBF80050CBF8008051
:10184000219C239B84EA0304299B84EA03042E9BA6
:1018500084EA03044FEAF47331933B44CBF8C43871
:10186000CBF80050CBF80080229C249B84EA030430
:101870002A9B84EA03042F9B84EA03044FEAF4734F
:1018800032933B44CBF8C438CBF80050CBF80080FF
:10189000239C259B84EA03042B9B84EA0304309B4E
:1018A00084EA03044FEAF47333933B44CBF8C4381F
:1018B000CBF80050CBF80080249C269B84EA0304DC
:1018C0002C9B84EA0304319B84EA03044FEAF473FB
:1018D00034933B44CBF8C438CBF80050CBF80080AD
:1018E000259C279B84EA03042D9B84EA0304329BF6
:1018F00084EA03044FEAF47335933B44CBF8C438CD
:10190000CBF80050CBF80080269C289B84EA030487
:101910002E9B84EA0304339B84EA03044FEAF473A6
:1019200036933B44CBF8C438CBF80050CBF800805A
:10193000279C299B84EA03042F9B84EA0304349B9D
:1019400084EA03044FEAF47337933B44CBF8C4387A
:10195000CBF800504BF20009CCF652195AF8047B30
:10196000CBF80090289C2A9B84EA0304309B84EAED
:101970000304359B84EA03044FEAF47338933B4431
:10198000CBF8C438CBF80050CBF80090299C2B9BA7
:1019900084EA0304319B84EA0304369B84EA03044B
:1019A0004FEAF47339933B44CBF8C438CBF800507A
:1019B000CBF800902A9C2C9B84EA0304329B84EA97
:1019C0000304379B84EA03044FEAF4733A933B44DD
:1019D000CBF8C438CBF80050CBF800902B9C2D9B53
:1019E00084EA0304339B84EA0304389B84EA0304F7
:1019F0004FEAF4733B933B44CBF8C438CBF8005028
:101A0000CBF800902C9C2E9B84EA0304349B84EA40
:101A10000304399B84EA03044FEAF4733C933B4488
:101A2000CBF8C438CBF80050CBF800902D9C2F9BFE
:101A300084EA0304359B84EA03043A9B84EA0304A2
:101A40004FEAF4733D933B44CBF8C438CBF80050D5
:101A5000CBF800902E9C309B84EA0304369B84EAEA
:101A600003043B9B84EA03044FEAF4733E933B4434
:101A7000CBF8C438CBF80050CBF800902F9C319BAA
:101A800084EA0304379B84EA03043C9B84EA03044E
:101A90004FEAF4733F933B44CBF8C438CBF8005083
:101AA000CBF80090309C329B84EA0304389B84EA94
:101AB00003043D9B84EA03044FEAF47340933B44E0
:101AC000CBF8C438CBF80050CBF80090319C339B56
:101AD00084EA0304399B84EA03043E9B84EA0304FA
:101AE0004FEAF47341933B44CBF8C438CBF8005031
:101AF000CBF80090329C349B84EA03043A9B84EA3E
:101B000003043F9B84EA03044FEAF47342933B448B
:101B1000CBF8C438CBF80050CBF80090339C359B01
:101B200084EA03043B9B84EA0304409B84EA0304A5
:101B30004FEAF47343933B44CBF8C438CBF80050DE
:101B4000CBF80090349C369B84EA03043C9B84EAE7
:101B50000304419B84EA03044FEAF47344933B4437
:101B6000CBF8C438CBF80050CBF80090359C379BAD
:101B700084EA03043D9B84EA0304429B84EA030451
:101B80004FEAF47345933B44CBF8C438CBF800508C
:101B9000CBF80090369C389B84EA03043E9B84EA91
:101BA0000304439B84EA03044FEAF47346933B44E3
:101BB000CBF8C438CBF80050CBF80090379C399B59
:101BC00084EA03043F9B84EA0304449B84EA0304FD
:101BD0004FEAF47347933B44CBF8C438CBF800503A
:101BE000CBF80090389C3A9B84EA0304409B84EA3B
:101BF0000304459B84EA03044FEAF47348933B448F
:101C0000CBF8C438CBF80050CBF80090399C3B9B04
:101C100084EA0304419B84EA0304469B84EA0304A8
:101C20004FEAF47349933B44CBF8C438CBF80050E7
:101C3000CBF800903A9C3C9B84EA0304429B84EAE4
:101C40000304479B84EA03044FEAF4734A933B443A
:101C5000CBF8C438CBF80050CBF800903B9C3D9BB0
:101C600084EA0304439B84EA0304489B84EA030454
:101C70004FEAF4734B933B44CBF8C438CBF8005095
:101C8000DAF80070CBF800803C9C3E9B84EA0304A9
:101C9000449B84EA0304499B84EA03044FEAF473F7
:101CA0004C933B44CBF8C438CBF80050CBF80080C1
:101CB0003D9C3F9B84EA0304459B84EA03044A9BC2
:101CC00084EA03044FEAF4734D933B44CBF8C438E1
:101CD000CBF80050CBF800803E9C409B84EA030484
:101CE000469B84EA03044B9B84EA03044FEAF473A3
:101CF0004E933B44CBF8C438CBF80050CBF800806F
:101D00003F9C419B84EA0304479B84EA03044C9B69
:101D100084EA03044FEAF4734F933B44CBF8C4388E
:101D2000CBF80050CBF80080409C429B84EA03042F
:101D3000489B84EA03044D9B84EA03044FEAF4734E
:101D400050933B44CBF8C438CBF80050CBF800801C
:101D5000419C439B84EA0304499B84EA03044E9B11
:101D600084EA03044FEAF47351933B44CBF8C4383C
:101D7000CBF80050CBF80080429C449B84EA0304DB
:101D80004A9B84EA03044F9B84EA03044FEAF473FA
:101D900052933B44CBF8C438CBF80050CBF80080CA
:101DA000439C459B84EA03044B9B84EA0304509BB9
:101DB00084EA03044FEAF47353933B44CBF8C438EA
:101DC000CBF80050CBF80080449C469B84EA030487
:101DD0004C9B84EA0304519B84EA03044FEAF473A6
:101DE00054933B44CBF8C438CBF80050CBF8008078
:101DF000459C479B84EA03044D9B84EA0304529B61
:101E000084EA03044FEAF47355933B44CBF8C43897
:101E1000CBF80050CBF80080469C489B84EA030432
:101E20004E9B84EA0304539B84EA03044FEAF47351
:101E300056933B44CBF8C438CBF80050CBF8008025
:101E4000479C499B84EA03044F9B84EA0304549B08
:101E500084EA03044FEAF47357933B44CBF8C43845
:101E6000CBF80050CBF80080489C4A9B84EA0304DE
:101E7000509B84EA0304559B84EA03044FEAF473FD
:101E800058933B44CBF8C438CBF80050CBF80080D3
:101E9000499C4B9B84EA0304519B84EA0304569BB0
:101EA00084EA03044FEAF47359933B44CBF8C438F3
:101EB000CBF80050CBF800804A9C4C9B84EA03048A
:101EC000529B84EA0304579B84EA03044FEAF473A9
:101ED0005A933B44CBF8C438CBF80050CBF8008081
:101EE0004B9C4D9B84EA0304539B84EA0304589B58
:101EF00084EA03044FEAF4735B933B44CBF8C438A1
:101F0000CBF80050CBF800804C9C4E9B84EA030435
:101F1000549B84EA0304599B84EA03044FEAF47354
:101F20005C933B44CBF8C438CBF80050CBF800802E
:101F30004D9C4F9B84EA0304559B84EA03045A9BFF
:101F400084EA03044FEAF4735D933B44CBF8C4384E
:101F5000CBF80050CBF800804E9C509B84EA0304E1
:101F6000569B84EA03045B9B84EA03044FEAF47300
:101F70005E933B44CBF8C438CBF80050CBF80080DC
:101F80004F9C519B84EA0304579B84EA03045C9BA7
:101F900084EA03044FEAF4735F933B44CBF8C438FC
:101FA000CBF800500DF11C090BF6C8080BF6880A97
:101FB00099E8F80088E8F8009AE8F80001397FF419
:101FC0001FAA60B082E8F800BDE8F00F704700BFBC
:101FD0002DE9F84040F2D013C2F20003F8CB82E8BA
:101FE000F800FFF7FDF9BDE8F88000BFAFF300800F
:101FF0000A464FF00101FFF7F3B900BFAFF30080CD
:102000002DE9F00140F22021C2F2000191E8FE0129
:1020100080E8FE01BDE8F0014FF00000704700BF0E
:102020002DE9F01F41F2000CCEF2080CD0B0059261
:102030008B4692E8FE010CF6480989E8FE0140F261
:10204000002AC2F2000ACDF808A00DF11C0900BF59
:1020500089E8FE01DDF808A09AE8E00750F8042BB3
:1020600011BA1091CCF84418CCF800905AF8043BFF
:10207000CCF8C438CCF80080CCF8007050F8042BB1
:1020800011BA5AF8043BCCF844181191CCF80090DE
:10209000CCF8C438CCF80080CCF8007050F8042B91
:1020A00011BA5AF8043BCCF844181291CCF80090BD
:1020B000CCF8C438CCF80080CCF8007050F8042B71
:1020C00011BA5AF8043BCCF844181391CCF800909C
:1020D000CCF8C438CCF80080CCF8007050F8042B51
:1020E00011BA5AF8043BCCF844181491CCF800907B
:1020F000CCF8C438CCF80080CCF8007050F8042B31
:1021000011BA5AF8043BCCF844181591CCF8009059
:10211000CCF8C438CCF80080CCF8007050F8042B10
:1021200011BA5AF8043BCCF844181691CCF8009038
:10213000CCF8C438CCF80080CCF8007050F8042BF0
:1021400011BA5AF8043BCCF844181791CCF8009017
:10215000CCF8C438CCF80080CCF8007050F8042BD0
:1021600011BA5AF8043BCCF844181891CCF80090F6
:10217000CCF8C438CCF80080CCF8007050F8042BB0
:1021800011BA5AF8043BCCF844181991CCF80090D5
:10219000CCF8C438CCF80080CCF8007050F8042B90
:1021A00011BA5AF8043BCCF844181A91CCF80090B4
:1021B000CCF8C438CCF80080CCF8007050F8042B70
:1021C00011BA5AF8043BCCF844181B91CCF8009093
:1021D000CCF8C438CCF80080CCF8007050F8042B50
:1021E00011BA5AF8043BCCF844181C91CCF8009072
:1021F000CCF8C438CCF80080CCF8007050F8042B30
:1022000011BA5AF8043BCCF844181D91CCF8009050
:10221000CCF8C438CCF80080CCF8007050F8042B0F
:1022200011BA5AF8043BCCF844181E91CCF800902F
:10223000CCF8C438CCF80080CCF8007050F8042BEF
:1022400011BA5AF8043BCCF844181F91CCF800900E
:10225000CCF8C438CCF80080CCF800704FF03002D5
:1022600020AB00BF53F8401CCCF8441853F83C1C7A
:10227000CCF86818CCF8005053F81C1CCCF8C418E3
:1022800053F8081CCCF86818CCF80060DCF8841807
:1022900043F8041BCCF800905AF8041BCCF8C4187F
:1022A000CCF80080CCF80070013ADBD10DF11C09AC
:1022B0000CF6C80A99E8FE018AE8FE010CF6880AC5
:1022C0009AE8FE01BBF1010B7FF4C2AEDDF8149079
:1022D00050B089E8FE01BDE8F01F7047AFF3008001
:1022E0002DE9F04F40F22024C2F2000494E8F00FF0
:1022F00082E8F00FFFF794FEBDE8F08FAFF30080A7
:102300000A464FF001018BE6AFF30080AFF3008087
:10231000B0B582B000AF7860B7F90630184681F0EA
:102320001FFE04460D4697F90430184681F018FE4A
:1023300002460B4643EC112B9FED0B0B00F090FD7A
:1023400053EC102B204629466AF09AFE03460C46B1
:1023500044EC173BB0EE470AF0EE670A0837BD467B
:10236000B0BD00BFAFF300800000000000002440BB
:1023700090B482B000AF786039607A684FF00003A3
:102380004FF00004C2E900347A684FF000034FF0C8
:102390000004C2E902343B68002B30D17A6836A4CD
:1023A000D4E90034C2E904347A6835A4D4E90034AD
:1023B000C2E906347A6834A4D4E90034C2E90834A6
:1023C0007A6833A4D4E90034C2E90A347A6832A4C2
:1023D000D4E90034C2E90C347A6831A4D4E9003479
:1023E000C2E90E347A6830A4D4E90034C2E910346A
:1023F0007A682FA4D4E90034C2E912342FE07A6855
:102400002DA4D4E90034C2E904347A682CA4D4E9B8
:102410000034C2E906347A682BA4D4E90034C2E956
:1024200008347A682AA4D4E90034C2E90A347A6804
:1024300029A4D4E90034C2E90C347A6828A4D4E988
:102440000034C2E90E347A6827A4D4E90034C2E922
:1024500010347A6826A4D4E90034C2E912347B68C7
:102460003A68C3F8D020002318460837BD4690BC10
:10247000704700BFAFF3008008C9BCF367E6096A84
:102480003BA7CA8485AE67BB2BF894FE72F36E3C03
:10249000F1361D5F3AF54FA5D182E6AD7F520E5160
:1024A0001F6C3E2B8C68059B6BBD41FBABD9831F1A
:1024B00079217E1319CDE05BD89E05C15D9DBBCB14
:1024C00007D57C362A299A6217DD70305A01599156
:1024D00039590EF7D8EC2F15310BC0FF672633673B
:1024E00011155868874AB48EA78FF9640D2E0CDB3E
:1024F000A44FFABE1D48B5472DE9F04F2DED048BD2
:10250000D1E900679DB01446069347F6F07333EAAD
:1025100017430590DDF8ACA00C9607972BD100234C
:10252000E370C7F3130333434FF06E031DD16922E9
:102530006370002F4FF066032270A37009DAB24B6C
:102540002A9A0325136028461DB0BDEC048BBDE814
:10255000F08F069B9C0706D4AC4A13F0040FAC4BDB
:1025600008BF1346ECE7AB4BEAE761222370A37088
:102570006270A64BE4E7059B23F02003412B00F09B
:10258000BB82002200233046394681F009FD002835
:1025900042D007F100430C9A1F46012316460993C7
:1025A000002200233046394681F0E3FC002840F049
:1025B0009D820FA847EC106B00F002FF0F9840F2CD
:1025C0002D154543A5F5AB5B4FF47A738DED100BDC
:1025D000ABF11C0B9FED820B9BFBF3FBABEB000005
:1025E00000F022FF41F294139D428DED1A0B15DC91
:1025F0007DA3D3E90023CDE91623CBF10005EDB18E
:10260000E80711D4DDE91601DDE916236AF038FD8B
:102610006D10CDE91601F3E70990C1E77E4B00226A
:10262000CDE916235D46EAE7DDE91601DDE91A2367
:102630006AF026FD012DCDE91A01E3D1DDE9100193
:10264000DDE91A236AF0A6FD0FF2A419D9E9008981
:10265000CDE91201714F0026DDE9120142464B46D9
:1026600081F09EFC002840F093800FF28C19D9E98C
:1026700000896A4F0026DDE9120142464B4681F08F
:1026800010FD002840F09780DDE9120181F025FC63
:102690009FED5B8B8BEAEB739FED539BA3EBEB738F
:1026A00005460D93284681F05BFC0F9EABEB0606BA
:1026B00041EC100B304600F0B7FEBBF1000F8DED82
:1026C000120B8DED148B80F2AD808DED169B8DED90
:1026D000188BDDE91689DDE91601DDE918674FF091
:1026E000000842464B466AF0FDFD32463B466AF022
:1026F000CFFECDE91801CDE916890022464BDDE970
:1027000016016AF0BDFC02460B46002044496AF0FF
:10271000E9FD0022404B6AF03DFDCDE918010D9B1B
:102720000893089BD90700F18F80DDE91623DDE9C6
:102730001889DDE91867104619466AF0A9FE424675
:102740004B466AF0A5FE32463B466AF099FCCDE95D
:102750001801DDE91601DDE916236AF091FCCDE9E7
:102760001601DDE91689DDE91601DDE918674FF08C
:10277000000842464B466AF0B5FD3B4632466AF0D9
:1027800087FE089BCDE918015B10CDE91689C7E7E4
:10279000DDE9120132463B466AF072FCCDE91201D6
:1027A000DDE91A0132463B466AF0F4FC0BF1FF3BCF
:1027B000CDE91A0150E7DDE9120132463B466AF0E5
:1027C000E9FCCDE91201DDE91A0132463B466AF027
:1027D00057FC0BF1010BCDE91A014CE7AFF3008078
:1027E000000000000000F03F9A9999999999C93F1B
:1027F00000000000006AF8400000000080842E41C4
:102800000000000000000000B91809008618090047
:1028100089180900871809000000144000002440AE
:102820000000F03F9FEDBC7B8DED167B8DED188B8E
:102830007FF475AFDDE91201DDE9102381F006FCBC
:10284000002844D1013D2DE79DED127BDDE918897B
:10285000DDE91601DDE91823DDE914678DED0A7B5A
:102860006AF016FE32463B466AF00AFC42460646CD
:102870000F464B46DDE90A016AF002FC02460B46B0
:10288000304639466AF004FECDE91401DDE916014F
:10289000DDE912236AF0F4FBCDE91201DDE91289CA
:1028A000DDE91201DDE914674FF0000842464B46AE
:1028B0006AF018FD3B4632466AF0EAFD089B012BA0
:1028C000CDE91401CDE912897FF42FAFB2E7DDE93C
:1028D0001223DDE910016AF005FDCDE91001DDE903
:1028E0001423DDE910016AF0FDFCCDE91001DDE9FA
:1028F0001A23DDE910016AF04DFCCDE91001DDE994
:10290000100190A3D3E900236AF0BAFBCDE91001CE
:10291000DDE9100181F0E1FADDE91067804681F020
:102920001FFB02460B46304639466AF0DBFC85A3A6
:10293000D3E900236AF0A4FBCDE91001DDE9100121
:1029400081F0CBFA0646002EC0F29C80744B9E426A
:1029500000F39F80B8F1000FC0F2A280704B984541
:1029600000F3A4806F4A954200F3A6806E486F4B37
:10297000B8FBF3F20A21B6FBF3F300FB028800FB7D
:10298000036601FB052501FB08384E430BF1FF3BB5
:102990002146302701F8067B284681F01AF904F118
:1029A0000C01404681F015F904F11201304681F026
:1029B00010F900232375099BE7740BF1050B43EA1B
:1029C0008B0B002B00F09A80594B2A9ADAF80050B2
:1029D0001360059B3BF0010B48BF0BF1030B612B10
:1029E0004FEAAB0B00F0398100F3B080452B00F0CB
:1029F000B780472B04D0412B00F02F81672305932C
:102A0000069B002D43F400630693DCBF0123CAF844
:102A10000030DAF800101129A8BF11210131204639
:102A200081F0B0F8DAF8003083445B4540F3FF8171
:102A30001BF1040FC0F2FB810BF101029B1ACAF8D3
:102A40000030069ADAF80030BBF1000F02F400669D
:102A500080F27881CBF100075A1CBA4280F23B81A8
:102A6000302323702E2363702D9ADAF80030136020
:102A700002252D9B1B68002B40F388813E23635564
:102A8000013583E106F5742606F5107608F1FF3866
:102A900059E7A6F57426A6F5107608F1010856E761
:102AA00008F5742808F51078013D53E7A8F5742857
:102AB000A8F51078013552E79D427FF769AF6FF0B6
:102AC00009031C480A2295FBF2F103FB015500FBA8
:102AD000058595FBF2F803FB085300FB03660536FA
:102AE0000BF1010B96FBF2F60D4651E700266FF055
:102AF000040BB04635464BE74FF0000B069B9A0798
:102B000006D40D4A13F0040F0C4B08BF13465CE7C4
:102B10000B4B5AE7AFF300800000000000001440A8
:102B20003F420F009F8601006079FEFFA0860100F2
:102B3000B918090040420F008618090089180900D9
:102B4000871809000000000080842E41059B662B39
:102B50003FF477AF672B3FF453AF652B7FF44EAF55
:102B6000DAF80030112B05DD2D9A113B136011238B
:102B7000CAF80030069BDAF8005013F4006605F13D
:102B8000020504D12946204680F0FCFF8344637887
:102B90002370069BDAF8002023F4FE6323F007037A
:102BA0001B051B0D13431CBF2E2363702D9B1B683D
:102BB00008BF0125002BC2BF3E236355013576B106
:102BC000069B1B070BD46219151B12F8013D302B15
:102BD000FAD03E2BF8D02E2B08BF05F1FF35BBF104
:102BE000000F05F10102B8BFCBF1000B059B635547
:102BF000B4BF2D212B21BBF57A7F05F10203A1542F
:102C00000ADB4FF47A72BBFBF2F202F13001E154BD
:102C10008A4B03FB02BBEB1CBBF1630F0ADD642292
:102C20009BFBF2F202F13001E1546FF0630101FB12
:102C300002BB01330A229BFBF2F2D2B202F1300155
:102C4000E1549D1C1C44C2EB42130BF1300BC2EB50
:102C500083020BEB4202627075E4079B0C98C3F38E
:102C60000A56C3F31301F6B1A6F2FF33069A02F037
:102C700008022A431DD172487249059D002E0CBFDF
:102C800030223122612D08BF0146204669F00EFA3C
:102C90006D4A6E4B079933EA210328BF13462A9ADF
:102CA000054613604FE450EA0103694B08BF002357
:102CB000DCE7CDE900010293664867492B46059D94
:102CC000002E0CBF30223122612D08BF0146204664
:102CD00069F0ECF9DCE75B449D1C122DC1BF2D9A15
:102CE000113B1360132576B92946204680F04AFF30
:102CF00048B17FEA0B0705F1010504D16378237021
:102D00002E236370B5E6012F04EB05030CD11A1BCB
:102D1000002A02DC01353023F1E713F801299A700B
:102D2000F5E713F80129DA701A1B002AF9DC3023C1
:102D300023702E2363703C23A3702C9B013F02352C
:102D40001F6096E60BEB0307BD1C122D53DD9EBBE7
:102D50001321204680F016FF70B30BF1010B1425F0
:102D60006B1E5B452ADD631E04EB0B02997803F8AA
:102D7000011F9A42FAD12E235370DAF800302D9AAF
:102D80005B44113B1360002B7FF478AE069B03F08D
:102D90000803002E45D0002B7FF4D5AB6219151B1C
:102DA00012F8013D302BFAD03E2BF8D02E2B7FF4B9
:102DB000CAAB013DFFF7C7BB1325D1E7631C6219FE
:102DC00013F8011B03F8021C9A42F9D13C2302F8C4
:102DD000013CABEB050B2C9A0BF1020313602E2286
:102DE0006255DAF800206B1CCAB12D990A603E22A8
:102DF0000235E254CAE73EB92946204680F0C2FEB9
:102E000010B10BF1010BFD1C631EA3449A7803F86B
:102E1000012F9B45FAD12E238BF80130B6E71D46D2
:102E2000B4E7DAF8002013437FF48DABC1E7013B30
:102E3000CAF80030059B023B059391E618FCFFFFA2
:102E40008B18090093180900B918090086180900A1
:102E500001FCFFFF9B180900AA180900FFFFFFFFF4
:102E60002DE9F04F5BEC11AB8BB000223E4B11EE25
:102E7000100A594655EC104B81F07BF828BB002214
:102E800000232046294681F0E1F800285FD0002287
:102E900000232046294681F06CF80022D0B100239F
:102EA0005046594681F0D2F8002800F0A0812F4BFF
:102EB00021221A60504600220023594681F059F819
:102EC000002840F052822A4D002445EC104B0BB0F4
:102ED000BDE8F08F274B5046594681F061F898B90C
:102EE0001DA3D3E900235046594681F084F858B910
:102EF0005946504680F0F1FF064681F031F85246BF
:102F00005B4681F036F818B9184B21221A60DAE7CF
:102F100005F100431D4606F00103019300224FF026
:102F200080435046594681F024F828B30CA3D3E9D6
:102F300000232046294681F033F8E8B122462B468B
:102F4000204629466AF09CF804460D46BDE70190EC
:102F5000E4E700BFAFF300800000C0FFFFFFDF41E8
:102F6000408CB5781DAF15440000F03F3828012093
:102F70000000F0FF0000E0C145EC104B09A800F094
:102F800083FA57EC106B10EE100AACA3D3E90023C0
:102F9000394681F05BF8002814BF08240024A04DB6
:102FA00004F1040805EBC80132463B46D1E90001B3
:102FB00081F077F8002818BF444604F1020805EBB9
:102FC000C80132463B46D1E9000181F06AF8002889
:102FD00018BF444605EBC405D5E902893046424690
:102FE0004B4639466AF07EF98E4B621003EBC20302
:102FF000D3E900236AF076F90022CDE902018A4B79
:10300000304639466AF03CF8002206460F46864BA9
:10301000404649466AF034F802460B463046394687
:103020006AF036FA02460B46DDE902016AF0B2F8B0
:1030300002460B46804689466AF022F86EA3D3E921
:10304000002306460F466AF01BF86DA3D3E9002360
:103050006AF01EFA32463B466AF012F86AA3D3E9D8
:1030600000236AF015FA32463B466AF009F868A375
:10307000D3E900236AF00CFA32463B466AF000F8C6
:1030800042464B4669F0FCFF63A3D3E90023CDE938
:10309000060169F0F5FF06460998C4EB00100138F7
:1030A0000F4680F05DFF0022604B69F0E9FF0022CF
:1030B0005F4BCDE902015046594669F0E1FF80F0CF
:1030C0000CFF80F04DFF0022584B69F0D9FF52A34E
:1030D000D3E90023CDE904014046494669F0D0FF19
:1030E000DDE9062304460D46304639466AF0D0F93C
:1030F00002460B46204629466AF0CAF942464B462C
:103100006AF0C6F952465B4669F0BAFFDDE904236E
:1031100004460D46504659466AF0E4F8DDE90223BC
:1031200069F0AEFF02460B46204629466AF0B0F928
:1031300000223F4B04460D4669F0A2FF80F0CDFE11
:1031400080F00EFF0022394B69F09AFF06460F46C9
:1031500002460B46204629466AF0C4F8DDE90423FE
:1031600004460D46DDE9020169F08AFF32463B461E
:103170006AF08EF900222E4B8046894669F080FF66
:1031800080F0ABFE80F0ECFE0022284B69F078FF67
:10319000064602460B460F46404649466AF0A2F8EC
:1031A00022462B466AF074F90022214B804689465C
:1031B00069F066FF80F091FE80F0D2FE00221B4B8A
:1031C00069F05EFF02460B4604460D46304639461E
:1031D0006AF05EF9164B002269F052FF80F07DFE26
:1031E000144B984206462DDA134B22221A60002413
:1031F00000256AE6AFF3008028FC4ADBFD783C3FFF
:10320000AC8D272E2449623F0E089E999999893FDB
:103210004D5555555555B53FF80BAE941D55DC3FF2
:1032200008450800904508000000E03F0000B03F5E
:103230000000304020C0FFFF38280120CD3B7F66D2
:103240009EA0E63F22462B46404649466AF04AF891
:103250000022002304460D4680F0CDFE40B12046FA
:1032600029460022504B6AF03DF8013604460D46CF
:10327000002EB5BF06F10F084FEA26184FEA2818AE
:1032800008F10108494BC6EB081603EBC6062046B9
:1032900037A3D3E90023294669F0F2FE36A3D3E928
:1032A00000236AF0F5F822462B4669F0E9FE34A3C4
:1032B000D3E900236AF0ECF822462B4669F0E0FEE1
:1032C00031A3D3E900236AF0E3F822462B4669F0E4
:1032D000D7FE2FA3D3E900236AF0DAF822462B4663
:1032E00069F0CEFE2CA3D3E900236AF0D1F8D6E929
:1032F000006722462B4669F0C3FE29A3D3E90023C9
:103300006AF0C6F822462B4669F0BAFE32463B46C2
:1033100069F0B6FE02460B46304639466AF0B8F808
:1033200041EC100B09A800F0AFF809984044B0F543
:10333000806F09DD1E4B22221A60019B002B7FF457
:10334000C2AD00241B4DC0E56FF47F739842FFF6B9
:103350004BAF00F0CDF8019B55EC104B002B3FF428
:10336000B4AD05F100431D46AFE50024124DACE5B8
:1033700080CC92E3DD4EEF3E744C38E07A2F243F50
:103380009FCDD7187ED8553F981D136EABB2833FA3
:103390006D0203D7086BAC3FCEC482FFBDBFCE3FEA
:1033A000EF39FAFE422EE63F0000B03F0845080024
:1033B000382801200000F07F0000F03FFFFFFFFFF2
:1033C000F8B555EC104B06460022002310EE100A0B
:1033D000294680F0CEFD20B19FED110B0023336014
:1033E000F8BDC5F30A5122462B46A1F2FE3079B949
:1033F000C5F31301E70F01F4002547EA4101C1F3CA
:10340000130164000DB90138F4E761F31303224698
:1034100040F2FE3161F31E53306043EC102BDFE7C6
:10342000000000000000000070B555EC104B06468F
:103430000022002310EE100A294680F09AFD10B1F8
:103440009FED0B0B70BDC5F30A53334440F2FE727F
:10345000934205DD0A4B22221A609FED070BF1E72C
:10346000002BEDDD63F31E5545EC104BEAE700BF82
:103470000000000000000000000000000000F07FDD
:1034800038280120FFFFFFFFF8B555EC104B06462A
:103490000022002310EE100A294680F06AFD20B1B8
:1034A0009FED110B00233360F8BDC5F30A5122468E
:1034B0002B46A1F2FE3079B9C5F31301E70F01F4F1
:1034C000002547EA4101C1F3130164000DB9013839
:1034D000F4E761F31303224640F2FE3161F31E5319
:1034E000306043EC102BDFE700000000000000001C
:1034F00070B555EC104B06460022002310EE100A62
:10350000294680F036FD10B19FED0B0B70BDC5F361
:103510000A53334440F2FE72934205DD0A4B2222E5
:103520001A609FED070BF1E7002BEDDD63F31E55ED
:1035300045EC104BEAE700BF00000000000000006F
:10354000000000000000F07F3828012080B582B024
:1035500000AF78607968024868F04EFE00BEFDE773
:10356000D045080080B58EB000AF7860704868F034
:1035700043FE704B03F528533D331B78002B40F07E
:10358000D18000220021282038F096FA786343F693
:103590000E326949786B38F011FB07F128031946A0
:1035A000786B38F045FD034687F83330634868F0A0
:1035B00023FE97F93330002BEFD1BB6A1B685B68A1
:1035C000FB62FB6A1B78012B03D05D4868F014FE98
:1035D000A7E0FB6A5B781A46FB6A1B78C3F1FF031E
:1035E0009A4203D0574868F007FE9AE0FB6A9B783E
:1035F0009BB21B029BB21A46FB6ADB781343B3F5FE
:10360000104F09D0FB6A9B781946FB6ADB781A4693
:103610004D4868F0F1FD84E0FB6A1B791B061A46F1
:10362000FB6A5B791B041343FA6A92791202134313
:10363000FA6AD2791343022B03D0444868F0DCFDC8
:103640006FE0BB6A083310221946414880F03FF909
:1036500001233B73FE237B739023BB730123FB7316
:1036600000233B7400237B740023BB741423FB747E
:1036700007F10C03083310223649184680F027F969
:103680002C4BB3F8C03C1B0A9BB2DBB287F824304A
:10369000284BB3F8C03CDBB287F82530FB6A1B7AB5
:1036A000002B08D1002387F82630224B03F5EF5377
:1036B00001221A7007E0102387F826301D4B03F50E
:1036C000EF5300221A70002387F82730224868F051
:1036D00093FDBB6A07F10C011C2218463AF00EF963
:1036E000BB6A1946786B38F027FD034687F83330FC
:1036F00097F93330002B03D0184868F07DFD13E0B4
:10370000BB6A18467CF0E0FA786B7CF016F9786BAF
:103710007CF059F8074B03F528533D3301221A700A
:1037200001E03AE700BF24E73837BD4680BD00BF5F
:10373000E4450800B835002064DB080004460800B2
:103740001446080038460800644608008846080009
:10375000885300207A420020A8460800C44608008A
:1037600080B5ADF5024D84B000AF07F110030C3BFE
:103770001860002307F5024202F10B02137007F5EF
:103780008873E23B00221A8007F58873E43B00222D
:103790001A8007F58873F43B4FF480521A8007F5BE
:1037A0008873F43B07F58872E23A9A6007F11003D8
:1037B000043B4FF480521A8007F11003043B07F5D5
:1037C0008872E43A9A60C84868F016FD0022002129
:1037D000182038F071F907F5024303F1040318606B
:1037E000C24BB3F8C03C1A46C14907F5024303F186
:1037F0000403186838F0E2F9FF2107F5024303F1EA
:103800000403186838F058FABA4868F0F5FC00BFAD
:10381000B64B03F528533D331B7883F00103DBB22D
:10382000002BF5D1B44868F0E7FC07F5014303F13C
:10383000F003194607F5024303F10403186838F052
:1038400067FA034607F5024202F10302137007F517
:10385000024303F1030393F90030002B03D1A7487F
:1038600068F0CAFC02E0A64868F0C6FC9F4B03F56E
:10387000EF531B78002B2DD007F5014303F1F00324
:103880001B68184602F018FD07F5024303F10C030C
:10389000186007F5024303F10C031B68002B09D1E4
:1038A000984868F0A9FC02F029FE07F5024303F1ED
:1038B0000C03186007F5024303F10C031B68002B8F
:1038C0000ED007F5024303F10C0319688E4868F027
:1038D00093FC05E0002307F5024202F10C0213609D
:1038E0001022002189487FF0F6FF002307F50242ED
:1038F00002F10B02137007F5024303F10C031B687E
:10390000002B84D1824868F077FC28E307F58873A0
:10391000E43B00221A8007F5024303F10B031B78F6
:10392000002B13D107F5014303F1FC031B68184674
:1039300000F058FB07F5024303F10B031B7801333A
:1039400007F5024202F10B021370BBE207F50143D7
:1039500003F1FC031B681B685A6807F58873F43B86
:103960005A6007F5824202F1100207F58873F43BB2
:103970001146184669F0BBFF034607F5024202F103
:103980000302137007F58873E03B18467EF011FCC4
:1039900007F58873E03B03F5814350331A7842F012
:1039A00001021A7007F58873E03B18467FF03DFA74
:1039B00007F58873E03B03F5EB53083318467FF0B7
:1039C0009FF807F5824303F1100303F58143483361
:1039D0001B7803F00203DBB2002B19D04D4868F0CE
:1039E0000BFC07F58873E03B07F5824202F11002F9
:1039F0001946104600F07AFC1022002143487FF05F
:103A00006AFF3A4B03F5EE53013301221A7016E2B6
:103A100007F5824303F1100303F5814348331B7814
:103A200003F00803DBB2002B16D007F58873E03BE8
:103A300007F5824202F110021946104600F02EFEF0
:103A40001022002131487FF046FF284B03F5EE534A
:103A5000023301221A70F2E107F5824303F11003E9
:103A600003F5814348331B7803F02003DBB2002BBE
:103A700016D007F58873E03B07F5824202F1100289
:103A80001946104600F0FCFE102200211F487FF06E
:103A900022FF164B03F5EE53033301221A70CEE1D9
:103AA00007F5824303F1100303F5814348331B7884
:103AB00023F07F03DBB2002B2ED007F58873E03BA9
:103AC00007F5824202F110021946104601F05EF835
:103AD000102200210D487FF0FEFE044B03F5EE534B
:103AE000053301221A70AAE1E4460800B835002027
:103AF00064DB0800FC460800084708002847080067
:103B00003447080044470800604708007853002005
:103B100090470800B047080007F5824303F11003FF
:103B200003F5814349331B7803F00203DBB2002B1A
:103B300016D007F58873E03B07F5824202F11002C8
:103B40001946104601F01CF910220021B8487FF0F8
:103B5000C2FEB84B03F5EE53043301221A706EE136
:103B600007F5824303F1100303F581434A331B78C1
:103B700023F07F03DBB2002B16D007F58873E03B00
:103B800007F5824202F110021946104601F068F969
:103B900010220021A6487FF09EFEA64B03F5EE53AF
:103BA000063301221A704AE107F5824303F110033C
:103BB00003F5814349331B7803F00803DBB2002B84
:103BC00016D007F58873E03B07F5824202F1100238
:103BD0001946104601F0A2F91022002194487FF006
:103BE0007AFE944B03F5EE53073301221A7026E157
:103BF00007F5824303F1100303F5814349331B7832
:103C000003F02003DBB2002B16D007F58873E03BEE
:103C100007F5824202F110021946104601F0EEF952
:103C20001022002182487FF056FE824B03F5EE53AE
:103C3000083301221A7002E107F5824303F11003F1
:103C400003F581434B331B7803F00803DBB2002BF1
:103C500016D007F58873E03B07F5824202F11002A7
:103C60001946104601F04CFD1022002170487FF0EB
:103C700032FE704B03F5EE53093301221A70DEE079
:103C800007F5824303F1100303F581434B331B789F
:103C900003F02003DBB2002B16D007F58873E03B5E
:103CA00007F5824202F110021946104601F0C2FDEA
:103CB000102200215E487FF00EFE5E4B03F5EE53AE
:103CC0000A3301221A70BAE007F5824303F11003A8
:103CD00003F5814349331B7823F07F03DBB2002BCC
:103CE00016D007F58873E03B07F5824202F1100217
:103CF0001946104601F05CFE102200214C487FF06E
:103D0000EAFD4C4B03F5EE530B3301221A7096E09B
:103D100007F5824303F1100303F581434B331B780E
:103D200023F07F03DBB2002B16D007F58873E03B4E
:103D300007F5824202F110021946104601F024FFF5
:103D4000102200213A487FF0C6FD3A4B03F5EE53AE
:103D50000C3301221A7072E007F5824303F110035D
:103D600003F581434C331B7803F00203DBB2002BD5
:103D700016D007F58873E03B07F5824202F1100286
:103D80001946104602F052F81022002128487FF010
:103D9000A2FD284B03F5EE530D3301221A704EE0BD
:103DA00007F5824303F1100303F581434B331B787E
:103DB00003F00203DBB2002B16D007F58873E03B5B
:103DC00007F5824202F110021946104602F0B0F8DF
:103DD0001022002116487FF07EFD164B03F5EE53AE
:103DE0000E3301221A702AE007F5824303F1100313
:103DF00003F581434A331B7803F00803DBB2002B41
:103E00001AD007F58873E03B07F5824202F11002F1
:103E10001946104669F092FD1022002104487FF0F7
:103E20005AFD044B03F5EE530F3301221A7006E0DE
:103E300078530020B8350020664868F0DDF907F5B2
:103E4000014303F1FC031B681B685A6807F1100368
:103E5000043B5A6007F11002043A07F58873E03B0F
:103E60001146184669F020FD034607F5024202F1AB
:103E70000302137007F5024303F1030393F90030C3
:103E8000002B09D007F5024303F1030393F9003037
:103E90001946514868F0B0F907F5014303F1FC03F6
:103EA0001B681A6807F58873E43B1B88538107F584
:103EB000014303F1FC031B681A6807F58873E43BB0
:103EC0001B88138107F5014303F1FC031B6807F509
:103ED000014202F1F60207F5014101F1F80118462D
:103EE00039F054FD07F5014303F1F0031B6807F5B2
:103EF000014202F1F802116807F5014202F1F602EF
:103F00001288184602F090FB034607F5024202F1C0
:103F10000302137007F5024303F1030393F9003022
:103F2000002B09D007F5024303F1030393F9003096
:103F300019462A4868F060F907F5014303F1FC03CC
:103F40001B68184639F06AFD0346002BBADA07F5FC
:103F5000014303F1FC031B6818467BF0B5FE07F52F
:103F6000014303F1F0031B6807F5014202F1FC0273
:103F70001146184602F0CCFA034607F5024202F158
:103F80000302137007F5024303F1030393F90030B2
:103F9000002B3FF4BBAC07F5014303F1F0031B68B2
:103FA00018467BF0CAFC07F5014303F1F0031B68D8
:103FB00018467BF008FC0A4B03F5EF531B78002BE7
:103FC00001D002F08FFA064B03F528533D3300224F
:103FD0001A701CE4C4470800E0470800F8470800CE
:103FE000B835002090B5ADF2CC4D00AF3B1D186048
:103FF000002387F8C234152387F8C33407F11E0362
:1040000000221A8007F10C034FF480521A803B1DE6
:104010001B681B685A6807F10C035A6007F10C0310
:1040200007F11E029A6007F10C0300221A7307F1D0
:104030000C0300225A7307F11E0308221A8007F5A9
:104040001C7207F10C031146184667F025F89F48CB
:1040500068F0D2F807F51C73986EB7F8C63407F508
:104060001C72742101FB03F313446C331B681A4662
:104070000146974868F0C0F807F51C7393F8703054
:104080001946944868F0B8F807F51C7393F8713036
:104090001946914868F0B0F807F51C73B3F844323C
:1040A00019468E4868F0A8F807F1200318467FF0FB
:1040B000C8FB07F1200292F8483243F0020382F86D
:1040C000483207F12002937843F00103937007F11F
:1040D000200302221A7007F51C73B3F84432194604
:1040E0007F4868F089F80023A7F8C634ACE00023C5
:1040F000A7F8C4349EE0B7F8C63407F51C727421E3
:1041000001FB03F3D018B7F8C4241346DB011344B2
:104110005B0003F5EF530833724A13449C1CB7F855
:10412000C63407F51C72742101FB03F31344643396
:104130001B881A4621467FF05FFD0346002B74D191
:10414000B7F8C4241346DB0113445B0003F5EF53B7
:104150000833644A134402331946634868F04CF844
:10416000B7F8C63407F51C72742101FB03F313443E
:1041700071331B7897F8C3249A4256D9B7F8C634DE
:1041800007F51C72742101FB03F3134471331B7890
:1041900087F8C334B7F8C63407F51C72742101FBE5
:1041A00003F3134470331A7807F120035A70B7F8F9
:1041B000C63407F51C72742101FB03F31344683302
:1041C0001968B7F8C42447481346DB0113445B0061
:1041D000034403F5F7530A331B78994221D1B7F80A
:1041E000C63407F51C72742101FB03F313446C33CE
:1041F0001968B7F8C4243B481346DB0113445B003D
:10420000034403F5F7530B331B78994204D107F1AC
:10421000200300221A7008E007F1200301221A701F
:1042200003E007F1200302221A70B7F8C434013307
:10423000A7F8C434B7F8C434072B7FF65CAFB7F8DF
:10424000C6340133A7F8C63407F51C73B3F84432FB
:10425000B7F8C6249A42FFF44AAF3B1D1B681B689F
:104260005A6807F10C035A6007F10C039B68082297
:104270001A8007F10C0308225A7307F1200207F194
:104280000C031146184667F0E5FD034687F8C23473
:104290003B1D1B681B685B6848F20102042118463D
:1042A0007DF062F9034687F8C2343B1D1B681B682A
:1042B0000C221A813B1D1B681B680C225A810023AB
:1042C000184607F2CC47BD4690BD00BF1048080015
:1042D0002C48080040480800504808006048080082
:1042E00070480800B8350020904808002DE9F04FCC
:1042F000ADF2C44D02AF3B1D18603B461960002370
:1043000087F8B6343B461B6803F5EB530833184671
:104310007EF097FF3B461B6803F5814348331A78CC
:1043200042F004021A7007F594630822002118462F
:104330007FF0D1FA3B1D18683B1D1B681B891A468C
:1043400007F5946319467FF057FC0346002B00F0F5
:1043500015813B1D1B680822C54918467FF04CFC9F
:104360000346002B40F0C48007F29F430122C1495D
:1043700018467FF0ACFA07F224437822BE4918466B
:104380007FF0A5FA07F10C034FF48362BB4918468E
:104390007FF09DFA02F06CFD3B1D19683B1D1B6808
:1043A0001B891A46B2487FF092FA3B1D1B681A8996
:1043B000B34B03F5185320331A80B14B03F5185350
:1043C0000C3301221A8097F89F24AD4B03F5185344
:1043D0000A331A70AA4B03F531533433184607F2E7
:1043E0002443782219467FF072FA07F10C034FF448
:1043F00083621946A1487FF06AFA002387F8B73430
:104400001CE097F8B7349E4A4FF4836101FB03F335
:1044100013446C331A789A4B03F5185324331B78E2
:104420009A4206D1012387F8B634964867F0E4FE35
:104430000CE097F8B734013387F8B73497F8B734FE
:104440009AB28F4BB3F8B43C9A42DAD397F8B634A9
:1044500083F00103DBB2002B42D0894BB3F8B43CAC
:1044600087F8B53497F8B534032B18D197F8B534DD
:10447000834A4FF4836101FB03F3134403F16802A1
:104480007F4B03F518532433101D19464FF48363F3
:104490001A467FF01CFA7C4867F0AEFE20E0784BAD
:1044A000B3F8B43C01339AB2754BA3F8B42C97F827
:1044B000B5340133724A4FF4836101FB03F31344B3
:1044C00003F168026E4B03F518532433101D19468F
:1044D0004FF483631A467FF0FAF96C4867F08CFE5C
:1044E0003B461B6803F5EB53083302221A7078E051
:1044F00007F5956308225E4918467FF0E8F907F54D
:104500009563D3E9003413F1010844F1000907F57C
:104510009562C2E9008923430BD107F59563D3E97E
:10452000003413F1010A44F1000B07F59563C3E968
:1045300000AB3B1D19683B1D1B681B891A4607F51C
:10454000956318467FF058FB0346002BD7D002F046
:104550008FFC07F595630822194645487FF0B7F9A7
:10456000474B03F51853203308221A803B461B683B
:1045700003F5EB53083301221A7032E007F5956317
:1045800008223B4918467FF0A2F907F59563D3E965
:1045900000345D1C44F1000607F59563C3E900563D
:1045A00007F59563D3E900342343EED002F060FCB5
:1045B00007F59563082219462D487FF088F9304B9E
:1045C00003F51853203308221A80782230492A48EC
:1045D0007FF07DF93B461B6803F5EB53083301225E
:1045E0001A703B461868264B03F5185320331B8876
:1045F0001A461F497FF06BF9214B03F518532033FE
:104600001A883B461B681A813B461B6803F5EB532F
:104610000A3328221A4918467FF059F93B461B688D
:104620001B7819463B461B685B781A463B461B685D
:104630009B7818463B461B68DB7800930346154879
:1046400067F0DAFD3B461B681B891946124867F084
:10465000D3FD3B461B6803F5ED5213786FF300035F
:1046600013700023184607F2BC47BD46BDE8F08F23
:10467000D05B0020F45F00202C620020DC5B002077
:10468000B8350020A8480800C4480800E8480800D9
:10469000C04400200C4908002849080090B5ADF539
:1046A000EB5D83B041F658576F44786039603B68E2
:1046B00003F5EB53083318467EF00FFC3B6803F517
:1046C000814348331A7842F010021A703B6803F5B0
:1046D000EB53083300221A70634B03F5EE5301339A
:1046E0001B7883F00103DBB2002B05D03B6803F598
:1046F000EB53083305221A707C68684604F11003F6
:1047000041F6585219467FF0E2F894E80F0001F0A4
:10471000A7FC034683F00103DBB2002B05D03B6806
:1047200003F5EB53083307221A704F4B03F5EF5391
:104730001B78002B05D004224C494D487FF0C7F868
:104740000BE0494B03F518530A3301221A70464B0C
:1047500003F518530C3301221A80434B03F53153F0
:10476000303300221A807B6803F5ED530C331B783D
:1047700003F00103DBB2002B46D00023FB733BE0C8
:10478000FA7B39491346DB009B1A1B010B4403F6E5
:10479000F9431A787B6803F5ED530B331B789A4283
:1047A00027D1314B03F5315330331B881A4613465A
:1047B000DB009B1A1B0103F529532B4A9818FA7B3F
:1047C0001346DB009B1A1B0103F54D63264A134475
:1047D0000433702219467FF07AF8234B03F53153E6
:1047E00030331B8801339AB21F4B03F531533033FA
:1047F0001A80FB7B0133FB73FB7B9AB21A4BB3F835
:10480000043F9A42BCD305E04FF40D7219491A488F
:104810007FF05DF83B6803F5EB53103378221749BE
:1048200018467FF054F83B6803F5EB530A33042233
:104830000F4918467FF04BF83B6803F500531C33D3
:104840001A7842F001021A703B6803F5EF530833FF
:104850004FF40D72084918467FF039F800231846C6
:104860001437BD4690BD00BFB83500203845002044
:10487000C25B00208C420020F85F00202C620020E8
:1048800090B5ADF5EB5D83B041F658576F44786055
:104890003960B14867F0B0FCB04B03F531533033A9
:1048A0001B881946AE4867F0A7FC3B6803F5EB533D
:1048B000083318467EF08EFD3B6803F5814348338C
:1048C0001A7842F040021A703B6803F5EB53083344
:1048D00000221A70A14B03F5EE5302331B7883F0CC
:1048E0000103DBB2002B05D03B6803F5EB53083323
:1048F00005221A707C68684604F1100341F658528C
:1049000019467EF0E4FF94E80F0001F0A9FB03468E
:1049100083F00103DBB2002B05D03B6803F5EB53BA
:10492000083307221A707B6803F5EB5308331A88A3
:104930003B6803F5EB530A331A803B6803F52953B0
:104940003C331A786FF300021A703B6803F5EB539F
:10495000083306221A700023FB73EBE0FB7B194639
:10496000804867F049FCFA7B7C491346DB009B1AC0
:104970001B010B4403F529531A887B6803F5EB539D
:1049800008331B889A4240F0D280774867F034FCA5
:104990003B6803F5EB53083300221A703B6803F5BC
:1049A00029533C331A7842F001021A70FA7B6B49A2
:1049B0001346DB009B1A1B010B4403F529531A888D
:1049C0003B6803F5EB530A331A80FA7B63491346BD
:1049D000DB009B1A1B010B4403F5295325331B787D
:1049E000022B7DD1614867F007FC3B6803F5295332
:1049F000383302221A803B6803F5EB530C33012253
:104A00001A803B6803F50053043301221A803B6887
:104A100003F5ED53023307221A803B6803F5EB5090
:104A200010303B6803F5ED5302331B881A4650499A
:104A30007EF04DFF3B6803F5EF5310331A7842F0D8
:104A400001021A703B6803F5EF530E330C221A80F3
:104A50003B6803F5ED501C303B6803F5EF530E3314
:104A60001B881A4643497EF032FF3B6803F500532A
:104A7000083302221A803B6803F50A5320330122CF
:104A80001A803B6803F500533E3307221A803B68C7
:104A900003F500500C303B6803F500533E331B8890
:104AA0001A4633497EF013FF3B6803F502530C337B
:104AB0001A7842F001021A703B6803F502530A3378
:104AC00006221A803B6803F5015018303B6803F555
:104AD00002530A331B881A4627497EF0F8FE33E05A
:104AE000FA7B1E491346DB009B1A1B010B4403F59E
:104AF000295325331B78012B0DD1204867F07CFB0F
:104B00003B6803F5EB530C334FF451621C491846D4
:104B10007EF0DDFE18E01B4867F06EFB3B6803F596
:104B200029533C331A786FF300021A700CE0FB7BB8
:104B30000133FB73FB7B9AB2084B03F531533033DF
:104B40001B889A42FFF40AAF0F4867F055FB002319
:104B500018461437BD4690BD40490800B8350020BE
:104B600058490800704908007C4908008C49080031
:104B7000A4490800AC490800BC490800C449080021
:104B80003C450020DC490800F049080090B5ADF52F
:104B9000EB5D83B041F658576F44786039607148D7
:104BA00067F02AFB7B6803F5EC5314331B88194626
:104BB0006D4867F021FB3B6803F5EB53083318465B
:104BC0007DF07AFE3B6803F5814348335A7842F022
:104BD00001025A703B6803F5EB53083300221A7048
:104BE000624B03F5EE5302331B7883F00103DBB213
:104BF000002B0FD05D4B03F5EE5303331B7883F08E
:104C00000103DBB2002B05D03B6803F5EB530833FF
:104C100005221A707C68684604F1100341F6585268
:104C200019467EF054FE94E80F0001F019FA03468D
:104C300083F00103DBB2002B05D03B6803F5EB5397
:104C4000083307221A700023FB7342E0FB7B1946EE
:104C5000474867F0D1FA3B6803F5EB530833082265
:104C60001A700023BB7321E0BB7B1946414867F0F3
:104C7000C3FAFB7B7A6803F2AD33DB0013449988F7
:104C8000BA7B3A481346DB009B1A1B01034403F529
:104C900029531B88994206D13B6803F5EB5308332F
:104CA00000221A700BE0BB7B0133BB73BB7B9AB253
:104CB0002E4B03F5315330331B889A42D4D33B68D3
:104CC00003F5EB5308331B78082B0CD0FB7B013327
:104CD000FB73FB7B9AB27B6803F5EC5314331B88A0
:104CE0009A42B3D300E000BF3B6803F5EB530833AF
:104CF00009221A700023FB731CE0FB7B19461E4837
:104D000067F07AFA7B6803F5EB5308331A78FB7B7C
:104D100016490B4403F518530A331B789A4206D1FF
:104D20003B6803F5EB53083300221A700BE0FB7B62
:104D30000133FB73FB7B9AB20C4B03F518530C3316
:104D40001B889A42D9D37B6803F5EB5308330122C1
:104D500019460A487EF0BBFD002318461437BD46AD
:104D600090BD00BF0C4A0800304A0800B83500204A
:104D7000504A0800604A0800704A0800F45F0020AA
:104D800090B5ADF5EB5D81B041F658576F44786052
:104D900039603B6803F5EB53083318467EF0ACFCF2
:104DA0003B6803F5814348335A7842F004025A7055
:104DB0007B6803F5814349331B7803F00203DBB2C0
:104DC000002B05D13B6803F5EB53083305221A701D
:104DD0007C68684604F1100341F6585219467EF08B
:104DE00076FD94E80F0001F03BF9034683F00103E0
:104DF000DBB2002B05D03B6803F5EB5308330722E9
:104E00001A70144867F0F8F93B6803F5EB53083360
:104E100000221A703B6803F5EB530A3310220E4947
:104E200018467EF054FD3B6803F5EB531A3310220D
:104E30001A800A4B03F518531033D3E900343A684B
:104E400002F5EC52C2E90034002318460C37BD4687
:104E500090BD00BF804A0800B25B0020B83500203A
:104E600090B5ADF5EB5D81B041F658576F44786071
:104E70003960274867F0C0F93B6803F5EB53083306
:104E800018467EF06BF83B6803F581434833DA78C7
:104E900042F00102DA703B6803F5EB53083300225D
:104EA0001A701C4B03F5EE5305331B7883F0010396
:104EB000DBB2002B05D03B6803F5EB53083305222A
:104EC0001A707C68684604F1100341F6585219467E
:104ED0007EF0FDFC94E80F0001F0C2F8034683F079
:104EE0000103DBB2002B05D03B6803F5EB5308331D
:104EF00007221A707B6803F5EB53083319460648FE
:104F000067F07AF9002318460C37BD4690BD00BF04
:104F1000984A0800B8350020B84A080090B5ADF5A9
:104F2000EB5D81B041F658576F44786039603B685B
:104F300003F5EB53083318467EF0F1F93B6803F5AF
:104F4000814348335A7842F010025A70294B03F5D6
:104F5000EE5304331B7883F00103DBB2002B05D042
:104F60003B6803F5EB53083305221A707C686846EA
:104F700004F1100341F6585219467EF0A8FC94E85B
:104F80000F0001F06DF8034683F00103DBB2002B44
:104F900005D03B6803F5EB53083307221A70154B15
:104FA00003F528533C331B78002B11D17B6803F5A4
:104FB000EC531E330122104918467EF01DFE0346B5
:104FC000002B05D03B6803F5EB5308330E221A7013
:104FD0003B6803F5EB53083300221A703B6803F576
:104FE000EB53093300221A70002318460C37BD46D4
:104FF00090BD00BFB8350020B25B0020B0B5ADF564
:10500000EB5D82B041F658576F44786039600023F9
:105010007B738D4867F0F0F83B6803F5EB5308337A
:1050200018467EF08BFB3B6803F5814348335A7882
:1050300042F040025A703B6803F5EB5308330022FC
:105040001A70824B03F5EE5307331B7883F001038C
:10505000DBB2002B0CD07D4B03F5345319331B7896
:10506000022B05D03B6803F5EB53083305221A7079
:105070007C68684604F1100341F6585219467EF0E8
:1050800026FC94E80F0000F0EBFF034683F00103D9
:10509000DBB2002B05D03B6803F5EB530833072246
:1050A0001A700023FB7320E07B6803F5EB530B338E
:1050B0001A78FB7B65490B4493F8B83C9A4211D1AE
:1050C00001237B73FB7B614A134493F8B82C5F4B3D
:1050D00003F5EF5302331A705C4B03F5EF530833BB
:1050E00001221A80FB7B0133FB73FB7B9AB2574B87
:1050F000B3F8BE3C9A42D7D37B7B83F00103DBB28B
:10510000002B05D03B6803F5EB53083316221A70C9
:105110003B6803F5814348335A7842F040025A70A5
:105120004A4B93F850301A463B6803F5EB5309336A
:105130001A703B6803F5275308331A786FF300029F
:105140001A70424B03F5EF5302331B78002B06D045
:105150003E4B03F5EF5302331B78012B7AD13C48C9
:1051600067F04AF87B6803F5EC5310331B7803F0C3
:105170000103DBB2002B3BD0344B03F5335230320A
:105180007B6803F5EC530233186810602F4B03F56E
:10519000335234327B6803F5EC53063318681060E1
:1051A0002A4B03F5335238327B6803F5EC530A334C
:1051B00018681060254B03F534520C327B6803F5F8
:1051C000EB531E33186810607B6803F5EB531C33F8
:1051D0001B7803F00103DBB2002B09D07B6803F5D9
:1051E000EB5318331A68194B03F5345308331A601C
:1051F0003B6803F527531C331A7842F001021A70FA
:105200003B6803F528530C331A786FF300021A70C9
:105210003B6803F5275318330C4A926A1A603B68BF
:1052200003F527531433094AD26A1A603B6803F521
:1052300027530C33054A1C4602F15C0393E8030034
:1052400084E80300C8E000BFC44A0800B835002065
:10525000E44A08007B6803F5EE5304331B7803F03F
:105260000103DBB2002B4ED0894B03F533523C32A5
:105270007B6803F5ED530E3318681060844B03F51B
:1052800034527B6803F5ED5304331B6813607B686D
:1052900003F5ED530C331B7803F00103DBB2002B55
:1052A00009D07B4B03F5345304337A6802F5ED5291
:1052B000083212681A607B6803F5EC5318331B78C8
:1052C00003F00103DBB2002B09D07B6803F5EC533C
:1052D00014331A686E4B03F5345308331A607B6835
:1052E00003F5ED531C331B7803F00103DBB2002BF5
:1052F00009D0674B03F534530C337A6802F5ED524D
:10530000183212681A603B6803F527531C331A7869
:105310006FF300021A703B6803F528530C331A78B8
:1053200042F001021A703B6803F527532033584AB4
:105330001C4602F1640393E8030084E803003B6821
:1053400003F527532833524A926B1A603B6803F5E2
:1053500027532C334E4A126C1A603B6803F52753CF
:1053600030334B4A126B1A603B6803F527533433D2
:10537000474AD26B1A603B6803F527533833444AD7
:10538000526B1A603B6803F52852137843F001030F
:1053900013703B6803F527533C333D4A526C1A6047
:1053A0003B6803F528530233394A194602F1480392
:1053B000186808603B6803F528530A331A7842F0EE
:1053C00001021A703B6803F528530633304A194628
:1053D00002F14C03186808603B6803F52752137804
:1053E00043F0010313702A4BB3F8B42C3B6803F568
:1053F00026533C331A800023FB7372E1FA7BFB7B5C
:1054000023494FF4836000FB02F20A446C321078A7
:105410003A684FF4836101FB03F3134403F5EB5344
:10542000143302461A70FA7BFB7B19494FF48360F0
:1054300000FB02F20A4402F58F62127AC2F3000204
:10544000D1B23A6801334FF4836000FB03F3134495
:1054500003F5EB5308331A7A61F300021A72FA7BF0
:10546000FB7B0B494FF4836000FB02F20A44FC32E1
:1054700010883A684FF4836101FB03F3134403F58A
:10548000F053043302461A800023BB7318E100BFB7
:10549000B8350020FC7BB97BF87BBA7B974D0B4677
:1054A000DB005B1A9B004FF4836101FB04F10B44AA
:1054B0002B448833B3F9004039681346DB009B1A4C
:1054C0009B004FF4836202FB00F213440B4403F58C
:1054D000EC53103322461A80FC7BB97BF87BBA7BF5
:1054E000864D0B46DB005B1A9B004FF4836101FB8A
:1054F00004F10B442B4487331C7839681346DB00D6
:105500009B1A9B004FF4836202FB00F213440B448E
:1055100003F5EC530F3322461A70FC7BB97BF87B02
:10552000BA7B764D0B46DB005B1A9B004FF4836120
:1055300001FB04F10B442B44863393F90040396896
:105540001346DB009B1A9B004FF4836202FB00F2C0
:1055500013440B4403F5EC530E3322461A70F87BC8
:10556000B97BFC7BBA7B654D0B46DB005B1A9B006D
:105570004FF4836101FB00F10B442B4478331B7B18
:10558000C3F30003D9B238681346DB009B1A9B00B3
:105590004FF4836202FB04F21344034403F5EC521C
:1055A000137B61F300031373F87BB97BFC7BBA7B3D
:1055B000524D0B46DB005B1A9B004FF4836101FBED
:1055C00000F10B442B447833196838681346DB002C
:1055D0009B1A9B004FF4836202FB04F213440344C2
:1055E00003F5EC531960F87BB97BFC7BBA7B434D28
:1055F0000B46DB005B1A9B004FF4836101FB00F15B
:105600000B442B4478331B7AC3F30003D9B23868B8
:105610001346DB009B1A9B004FF4836202FB04F2EB
:105620001344034403F5EC52137A61F3000313723D
:10563000F87BB97BFC7BBA7B304D0B46DB005B1AF9
:105640009B004FF4836101FB00F10B442B44783342
:105650001B7AC3F30003D9B238681346DB009B1AE8
:105660009B004FF4836202FB04F21344034403F5EE
:10567000EC52137A61F300031372F87BB97BFC7B65
:10568000BA7B1E4D0B46DB005B1A9B004FF4836117
:1056900001FB00F10B442B447C3319683868134636
:1056A000DB009B1A9B004FF4836202FB04F213445D
:1056B000034403F5EC5304331960BB7B0133BB7324
:1056C000BB7B9AB2FB7B0D494FF4836000FB03F375
:1056D0000B44FC331B889A42FFF4DCAEFB7B0133A6
:1056E000FB73FB7B9AB2054BB3F8B43C9A42FFF4D0
:1056F00085AE002318461037BD46B0BDB835002032
:1057000090B5ADF5EB5D81B041F658576F447860C8
:1057100039603B6803F5EB53083318467DF0E2FF30
:105720003B6803F581434833DA7842F01002DA70BF
:105730003B6803F5EB53083300221A703B4B03F52B
:10574000EE5308331B7883F00103DBB2002B0FD03C
:10575000364B03F5EE5309331B7883F00103DBB2BC
:10576000002B05D03B6803F5EB53083305221A7074
:105770007C68684604F1100341F6585219467EF0E1
:10578000A6F894E80F0000F06BFC034683F00103D9
:10579000DBB2002B05D03B6803F5EB53083307223F
:1057A0001A70234B1B780133DAB2214B1A70204B4D
:1057B0001B78092B06D83B6803F5EB531433012201
:1057C0001A7008E01A4B00221A703B6803F5EB537D
:1057D000143300221A70154B93F866203B6803F5CA
:1057E000EB530E331A70114B93F86830C3F3000378
:1057F000D9B23B6803F5EB5310331A7861F300021A
:105800001A700A4B93F867203B6803F5EB530F338C
:105810001A70064B93F869203B6803F5EB5311337C
:105820001A70002318460C37BD4690BDB8350020CD
:10583000F62B012090B5ADF5EB5D81B041F65857E0
:105840006F44786039603B6803F5EB5308331846C2
:105850007CF089FF3B6803F581434833DA7842F0F6
:105860004002DA703B6803F5EB53083300221A70EC
:105870004D4B03F5EE5309331B7883F00103DBB284
:10588000002B0FD0484B03F5EE530A331B7883F0FF
:105890000103DBB2002B05D03B6803F5EB53083363
:1058A00005221A707C68684604F1100341F65852CC
:1058B00019467EF00CF894E80F0000F0D1FB034687
:1058C00083F00103DBB2002B05D03B6803F5EB53FB
:1058D000083307221A70344B03F5345314337A68B3
:1058E00002F5EB52103212681A602F4B03F5345355
:1058F00010337A6802F5EB52143212681A607B6832
:1059000003F5EB530C331A78274B03F53453183354
:105910001A70264B1B780133DAB2244B1A70234BD2
:105920001B78092B07D83B6803F5EB5314331E4A49
:10593000526D1A600CE01D4B00221A703B6803F593
:10594000EB5314337A6802F5EB52103212681A6086
:10595000154B93F866203B6803F5EB530E331A7032
:10596000114B93F86830C3F30003D9B23B6803F5D9
:10597000EB5310331A7861F300021A700A4B93F854
:1059800067203B6803F5EB530F331A70064B93F80F
:1059900069203B6803F5EB5311331A700023184656
:1059A0000C37BD4690BD00BFB8350020F72B012055
:1059B00090B5ADF5EB5D83B041F658576F44786014
:1059C00039603B6803F5EB53083318467DF0E1FE80
:1059D0003B6803F5814348339A7842F001029A709C
:1059E0003B6803F5EB53083300221A707C68684665
:1059F00004F1100341F6585219467DF068FF94E80F
:105A00000F0000F02DFB034683F00103DBB2002BF7
:105A100005D03B6803F5EB53083307221A700023C7
:105A2000FB73FB7B564A4FF4836101FB03F3134482
:105A30006C331A787B6803F5EB5309331B789A4271
:105A400017D1FB7B4FF4836202FB03F368334C4AAC
:105A5000134404334FF4836219464A487DF037FFFC
:105A600000BF474B03F5EF5302331B78002B0BD0DD
:105A700003E0FB7B0133FB73D3E7414B03F5EF53AB
:105A800002331B78012B36D13D4B03F5EE5308331F
:105A90001B7883F00103DBB2002B0FD0384B03F5EA
:105AA000EE530E331B7883F00103DBB2002B05D0DD
:105AB0003B6803F5EB53083305221A703B6803F586
:105AC000EB5318331A7842F001021A703B6803F561
:105AD000EC5304331A786FF300021A703B6803F535
